:020000040800F2
:100000000028002061100008CD0F0008D30F000861
:10001000D90F0008DF0F0008E50F000800000000FE
:10002000000000000000000000000000EB0F0008CE
:10003000F70F000800000000031000080F10000870
:10004000A9100008A9100008A9100008A9100008AC
:10005000A9100008A9100008A9100008A91000089C
:10006000A9100008A9100008A9100008A91000088C
:10007000A9100008A9100008A9100008A91000087C
:10008000A9100008A9100008A9100008A91000086C
:10009000A9100008A9100008A9100008A91000085C
:1000A000A9100008A9100008A9100008A91000084C
:1000B0001D100008A910000800000000A910000889
:1000C000A91000080000000000000000A9100008AE
:1000D00000000000A9100008A9100008000000009E
:1000E000A9100008A9100008A910000800000000CD
:1000F0000000000000000000000000000000000000
:0C01000000000000000000005FF808F1A3
:10010C0010B5054C237833B9044B13B10448AFF345
:10011C0000800123237010BD40000020000000006F
:10012C000027000808B5034B1BB103490348AFF384
:10013C00008008BD000000004400002000270008DB
:10014C0080B483B000AF786039607B68184A82FB5A
:10015C0003129210DB17D31A164A13607968144BEA
:10016C0083FB01239A10CB17D21A13469B0013441E
:10017C005B00CA1A0F4B5A603B680D4A82FB031294
:10018C009210DB17D31A0B4A93603968084B83FB28
:10019C0001239A10CB17D21A13469B0013445B0011
:1001AC00CA1A044BDA6000BF0C37BD4680BC7047DE
:1001BC00676666661400002080B483B000AF786078
:1001CC00054A7B6832F81320044BDA6000BF0C3709
:1001DC00BD4680BC704700BF00000020000C0140F1
:1001EC0080B483B000AF7860054A7B6832F8133076
:1001FC001A02044BDA6000BF0C37BD4680BC704756
:10020C0000000020000C014080B582B000AF786087
:10021C007B68032B52D801A252F823F03902000854
:10022C005D02000881020008A502000800224FF4BC
:10023C006041254801F035FA01224FF480512248E3
:10024C0001F02FFA214B1B681846FFF7B5FF36E07B
:10025C0000224FF450411C4801F023FA01224FF4C4
:10026C000051194801F01DFA184B5B681846FFF74E
:10027C00A3FF24E000224FF43041134801F011FA9F
:10028C0001224FF48041104801F00BFA0F4B9B6890
:10029C001846FFF7A5FF12E000224FF4E0410A4890
:1002AC0001F0FFF901224FF40041074801F0F9F980
:1002BC00064BDB681846FFF793FF00E000BF00BF5A
:1002CC000837BD4680BD00BF000801401400002067
:1002DC0080B500AF01227E21144801F0E2F9002222
:1002EC004FF47041114801F0DCF900224FF6FF7118
:1002FC000F4801F0D6F90F4B00221A600E4B00226A
:10030C001A700A2000F04AFA0A2000F05BFA0A2060
:10031C0000F06CFA094B00221A60094B00221A609B
:10032C00084B00221A6000BF80BD00BF00080140CE
:10033C00000C01408400002080000020A000002060
:10034C00A8000020B000002080B500AF2C4B1B781B
:10035C00022B43D0022B50DC002B02D0012B29D0D6
:10036C004BE0002000F0DAF80346002B40D0244B81
:10037C0001221A70FFF7ACFF224B1B7801335A4253
:10038C0003F0030302F0030258BF5342DAB21D4BD1
:10039C001A701C4B1B78002B2AD01A4B1B78013B74
:1003AC00194A52F82330174A127811461846FFF7AB
:1003BC00C7FE1DE0002000F0B1F80346002B03D16E
:1003CC000F4B00221A7015E0002000F0C1F8034614
:1003DC00002B0FD00A4B02221A700BE0002000F009
:1003EC009DF80346002B07D1054B00221A7003E041
:1003FC0000BF02E000BF00E000BF00BF80BD00BF37
:10040C005C000020240000202800002080B500AFF4
:10041C000F4B1B78032B17D801A252F823F000BF07
:10042C003D04000843040008490400084F04000878
:10043C0000F0A8FA09E000F087FB06E000F026FCCB
:10044C0003E000F0C5FC00E000BF00BF80BD00BFB2
:10045C002400002090B583B000AF0023FB7149E06D
:10046C00FA79FB792749895C274AD154FB790833FF
:10047C00012202FA03F39BB2FC791946234801F0DE
:10048C00F9F803461A461F4B1A55FB791D4AD25CE4
:10049C00FB791D49CB5C9A4205D1FA79FB79194954
:1004AC00895C1B4AD154FB79194AD35C002B15D1BA
:1004BC00FB79184A32F81330B3F57A7F09D2FB79FD
:1004CC00144A32F81320013291B2124A22F8131056
:1004DC000DE0FB79104A0121D15408E0FB790D4A5B
:1004EC00002122F81310FB790B4A0021D154FB791F
:1004FC000133FB71FB79022BB2D900BF00BF0C3763
:10050C00BD4690BD6400002068000020000801403A
:10051C0060000020700000206C00002080B483B0CC
:10052C0000AF0346FB71FB79022B01D9002307E0D6
:10053C00FB79064AD35C002B0CBF01230023DBB2F2
:10054C0018460C37BD4680BC704700BF60000020C9
:10055C0080B483B000AF0346FB71FB79022B01D949
:10056C00FF2307E0FB79064AD35C012B0CBF012368
:10057C000023DBB218460C37BD4680BC704700BF69
:10058C006C00002080B500AF00F08AFD00F014F87C
:10059C0000F09AF800F04CF8064801F0EBFC0A2049
:1005AC0000F0FCF80A2000F00DF9FFF7CDFEFFF784
:1005BC002DFFFAE7B400002080B590B000AF07F132
:1005CC00180328220021184602F08CF83B1D00224B
:1005DC001A605A609A60DA601A610223BB610123C7
:1005EC00BB621023FB6200237B6307F118031846E0
:1005FC0001F088F80346002B01D000F0C9F80F2356
:10060C007B600023BB600023FB6000233B61002365
:10061C007B613B1D0021184601F0F4FA0346002BC8
:10062C0001D000F0B5F800BF4037BD4680BD0000DA
:10063C0080B586B000AF07F1080300221A605A603B
:10064C009A60DA603B4600221A605A601D4B4FF0EC
:10065C0080421A601B4B40F21F325A60194B002229
:10066C009A60184B0922DA60164B00221A61154B5E
:10067C0000229A61134801F02DFC0346002B01D097
:10068C0000F086F84FF48053BB6007F1080319465D
:10069C000C4801F0C3FD0346002B01D000F078F8A4
:1006AC0000233B6000237B603B461946054801F064
:1006BC008BFF0346002B01D000F06AF800BF1837FF
:1006CC00BD4680BDB400002080B586B000AF07F1F8
:1006DC00080300221A605A609A60DA60294B9B6901
:1006EC00284A43F004039361264B9B6903F00403EF
:1006FC007B607B68234B9B69224A43F00803936120
:10070C00204B9B6903F008033B603B6800224FF2CF
:10071C007E011D4800F0C5FF002247F67F711B4883
:10072C0000F0BFFF4FF27E03BB600123FB60002390
:10073C003B6102237B6107F108031946124800F064
:10074C001FFE47F67F73BB600123FB6000233B61F8
:10075C0002237B6107F1080319460C4800F010FED8
:10076C004FF4E063BB600023FB6000233B6107F1A7
:10077C0008031946044800F003FE00BF1837BD46B5
:10078C0080BD00BF0010024000080140000C014079
:10079C0080B400AF72B600BFFEE7000080B483B037
:1007AC0000AF7860054A7B681360054B00221A6025
:1007BC0000BF0C37BD4680BC704700BF7C000020DA
:1007CC007800002080B483B000AF7860054A7B6865
:1007DC001360054B00221A6000BF0C37BD4680BC6D
:1007EC00704700BF900000208C00002080B483B0C4
:1007FC0000AF7860054A7B681360054B00221A60D5
:10080C0000BF0C37BD4680BC704700BF980000206D
:10081C009400002080B400AF194B1B68002B0BDD3B
:10082C00174B1B68013B164A1360154B1B68002BBA
:10083C0002D1144B01221A60134B1B68002B0BDDE9
:10084C00114B1B68013B104A13600F4B1B68002BAC
:10085C0002D10E4B01221A600D4B1B68002B0BDDD5
:10086C000B4B1B68013B0A4A1360094B1B68002B9E
:10087C0002D1084B01221A6000BFBD4680BC7047F4
:10088C007C00002078000020900000208C000020CC
:10089C00980000209400002080B582B000AF034681
:1008AC00FB710B46BB7113467B7197F90730012B1B
:1008BC0005D100220221154800F0F3FE04E00122CC
:1008CC000221124800F0EDFE97F90630012B05D1FC
:1008DC00002204210D4800F0E4FE04E00122042172
:1008EC000A4800F0DEFE97F90530012B05D10022F5
:1008FC000821064800F0D5FE04E001220821034837
:10090C0000F0CFFE00BF0837BD4680BD0008014097
:10091C0080B582B000AF0346FB710B46BB7113462A
:10092C007B71FB79012B05D100221021144800F0BA
:10093C00B8FE04E001221021114800F0B2FEBB7990
:10094C00012B05D1002220210D4800F0AAFE04E065
:10095C00012220210A4800F0A4FE7B79012B05D14D
:10096C0000224021064800F09CFE04E001224021B8
:10097C00034800F096FE00BF0837BD4680BD00BF9F
:10098C000008014080B500AF694B1B68012B17D1E3
:10099C00684B1B685A4203F0030302F0030258BF72
:1009AC005342644A1360634B1B681846FFF72CFCD8
:1009BC00604B1B6801335F4A13600320FFF7EEFEA8
:1009CC005D4B1B68012B40F0B0805C4B1B78022BFD
:1009DC0077D0022B00F39E80002B02D0012B47D046
:1009EC0098E0574B9A68574B1B689A4217DD0122C7
:1009FC0000210020FFF750FF002200210120FFF70B
:100A0C0087FF4F4B1A684F4B1B68D01A4C4B9A6898
:100A1C004C4B1B68D31A1946FFF792FB16E00022C9
:100A2C0001210020FFF738FF002200210120FFF7F1
:100A3C006FFF434B1A68434B1B68D01A404B1A6824
:100A4C00404B1B68D31A1946FFF77AFB3D4B1B68CA
:100A5C0001333C4A13603A4B1A683A4B1B689A4272
:100A6C005ADC364B01221A70364B00221A6053E0C6
:100A7C00002200210120FFF70FFF0122002100209E
:100A8C00FFF746FF2E4B9A682E4B1B68D01A2C4B47
:100A9C001A682C4B1B68D31A1946FFF751FB294BCC
:100AAC001B680133274A1360254B9A68254B1B683A
:100ABC009A4233DC214B02221A70224B00221A601C
:100ACC002CE0002200210120FFF7E6FE002201218C
:100ADC000020FFF71DFF1A4B5A681A4B1B68D01ADF
:100AEC00174B5A68174B1B68D31A1946FFF728FB8C
:100AFC00144B1B680133134A1360114B5A68114B8A
:100B0C001B689A420CDC0D4B00221A700D4B002214
:100B1C001A6005E000BF04E000BF02E000BF00E087
:100B2C0000BF40F25740FFF74DFE00BF80BD00BF35
:100B3C0078000020880000208C000020800000201D
:100B4C00280000208400002080B500AF474B1B68B4
:100B5C00012B17D1464B1B685A4203F0030302F0DA
:100B6C00030258BF5342424A1360414B1B6818465C
:100B7C00FFF74AFB3E4B1B6801333D4A13600520CF
:100B8C00FFF720FE3B4B1B68012B06D112213A4884
:100B9C0000F09FFDFA20FFF701FE384B1B78022B6B
:100BAC002FD0022B4FDC002B02D0012B15D04AE0AA
:100BBC000120FFF7B3FC0346002B3FD02F4B012243
:100BCC001A702F4B1B6801332D4A13602C4B1B687A
:100BDC0001211846FFF7B4FA30E00120FFF79EFC24
:100BEC000346002B03D1254B00221A7028E001206C
:100BFC00FFF7AEFC0346002B22D0204B02221A70CA
:100C0C001EE00120FFF78AFC0346002B02D11B4B90
:100C1C0000221A701B4B1B68012B13D1184B1B683D
:100C2C000533174A1360164B1B6801211846FFF752
:100C3C0087FA4FF47A70FFF7D9FD03E000BF02E0AA
:100C4C0000BF00E000BF0220FFF768FC0346002B4A
:100C5C000AD00B4B1B680C4A13600B4B1A680A4BDF
:100C6C005B68D31A084A936000BF80BD8C000020DB
:100C7C008800002078000020000801409C00002023
:100C8C00A0000020940000202800002080B500AFB8
:100C9C00474B1B68012B17D1464B1B685A4203F07C
:100CAC00030302F0030258BF5342424A1360414B04
:100CBC001B681846FFF7A8FA3E4B1B6801333D4AE8
:100CCC0013600520FFF77EFD3B4B1B68012B06D103
:100CDC0024213A4800F0FDFCFA20FFF75FFD384B69
:100CEC001B78022B2FD0022B4FDC002B02D0012BB8
:100CFC0015D04AE00120FFF711FC0346002B3FD032
:100D0C002F4B01221A702F4B1B6801332D4A136095
:100D1C002C4B1B6802211846FFF712FA30E0012019
:100D2C00FFF7FCFB0346002B03D1254B00221A7066
:100D3C0028E00120FFF70CFC0346002B22D0204BAF
:100D4C0002221A701EE00120FFF7E8FB0346002B7D
:100D5C0002D11B4B00221A701B4B1B68012B13D1A9
:100D6C00184B1B680533174A1360164B1B6802217E
:100D7C001846FFF7E5F94FF47A70FFF737FD03E0FB
:100D8C0000BF02E000BF00E000BF0220FFF7C6FB7F
:100D9C000346002B0AD00B4B1B680C4A53600B4BC1
:100DAC001A680A4B5B68D31A084A936000BF80BD6F
:100DBC008C000020880000207800002000080140F2
:100DCC00A4000020A800002094000020280000208F
:100DDC0080B500AF474B1B68012B17D1464B1B68E6
:100DEC005A4203F0030302F0030258BF5342424A33
:100DFC001360414B1B681846FFF706FA3E4B1B6805
:100E0C0001333D4A13600520FFF7DCFC3B4B1B68AC
:100E1C00012B06D148213A4800F05BFCFA20FFF781
:100E2C00BDFC384B1B78022B2FD0022B4FDC002B38
:100E3C0002D0012B15D04AE00120FFF76FFB0346CF
:100E4C00002B3FD02F4B01221A702F4B1B68013304
:100E5C002D4A13602C4B1B6803211846FFF770F9C1
:100E6C0030E00120FFF75AFB0346002B03D1254B42
:100E7C0000221A7028E00120FFF76AFB0346002BC2
:100E8C0022D0204B02221A701EE00120FFF746FBF5
:100E9C000346002B02D11B4B00221A701B4B1B6804
:100EAC00012B13D1184B1B680533174A1360164BD3
:100EBC001B6803211846FFF743F94FF47A70FFF7CC
:100ECC0095FC03E000BF02E000BF00E000BF022081
:100EDC00FFF724FB0346002B0AD00B4B1B680C4A74
:100EEC0093600B4B1A680A4B9B68D31A084A5360E1
:100EFC0000BF80BD8C0000208800002078000020FE
:100F0C0000080140AC000020B0000020940000203C
:100F1C002800002080B485B000AF154B9B69144AA3
:100F2C0043F001039361124B9B6903F00103BB6017
:100F3C00BB680F4BDB690E4A43F08053D3610C4BFB
:100F4C00DB6903F080537B607B680A4B5B68FB605A
:100F5C00FB6823F0E063FB60FB6843F08063FB609D
:100F6C00044AFB68536000BF1437BD4680BC704711
:100F7C00001002400000014080B584B000AF7860E2
:100F8C007B681B68B3F1804F13D10C4BDB690B4AA8
:100F9C0043F00103D361094BDB6903F00103FB60F0
:100FAC00FB68002200211C2000F0B3F91C2000F08B
:100FBC00CCF900BF1037BD4680BD00BF0010024009
:100FCC0080B400AFFEE780B400AFFEE780B400AFA2
:100FDC00FEE780B400AFFEE780B400AFFEE780B45C
:100FEC0000AF00BFBD4680BC704780B400AF00BFEF
:100FFC00BD4680BC704780B400AF00BFBD4680BC0E
:10100C00704780B500AF00F091F800BF80BD0000C4
:10101C0080B500AF024800F0F9FF00BF80BD00BFF3
:10102C00B400002080B400AF00BFBD4680BC704748
:10103C0080B582B000AF78607B681B68B3F1804FDD
:10104C0003D1FFF707FAFFF7E5FB00BF0837BD46F2
:10105C0080BD00000C480D490D4A002302E0D45815
:10106C00C4500433C4188C42F9D30A4A0A4C0023E6
:10107C0001E013600432A242FBD3FFF7D3FF01F06F
:10108C000DFBFFF77FFA70470000002040000020A6
:10109C00402700084000002000010020FEE700006F
:1010AC0080B500AF084B1B68074A43F01003136070
:1010BC00032000F023F90F2000F008F8FFF72AFFB7
:1010CC000023184680BD00BF0020024080B582B0CE
:1010DC0000AF7860124B1A68124B1B7819464FF40C
:1010EC007A73B3FBF1F3B2FBF3F3184600F03BF960
:1010FC000346002B01D001230EE07B680F2B0AD88E
:10110C00002279684FF0FF3000F003F9064A7B6843
:10111C001360002300E0012318460837BD4680BD4C
:10112C00340000203C0000203800002080B400AFC8
:10113C00054B1B781A46054B1B681344034A136076
:10114C0000BFBD4680BC70473C000020FC00002066
:10115C0080B400AF024B1B681846BD4680BC70477C
:10116C00FC00002080B485B000AF78607B6803F091
:10117C000703FB600C4BDB68BB60BA684FF6FF03E0
:10118C001340BB60FB681A02BB68134343F0BF6398
:10119C0043F40033BB60044ABB68D36000BF143710
:1011AC00BD4680BC704700BF00ED00E080B400AFCE
:1011BC00044BDB681B0A03F007031846BD4680BCD2
:1011CC00704700BF00ED00E080B483B000AF034671
:1011DC00FB7197F90730002B0BDBFB7903F01F0237
:1011EC00064997F907305B09012000FA02F241F831
:1011FC00232000BF0C37BD4680BC704700E100E0E7
:10120C0080B483B000AF03463960FB7197F90730A7
:10121C00002B0ADB3B68DAB20C4997F90730120154
:10122C00D2B20B4483F800230AE03B68DAB20849D7
:10123C00FB7903F00F03043B1201D2B20B441A7674
:10124C0000BF0C37BD4680BC704700BF00E100E01A
:10125C0000ED00E080B489B000AFF860B9607A604E
:10126C00FB6803F00703FB61FB69C3F10703042B65
:10127C0028BF0423BB61FB690433062B02D9FB692D
:10128C00033B00E000237B614FF0FF32BB6902FAA5
:10129C0003F3DA43BB681A407B699A404FF0FF3185
:1012AC007B6901FA03F3D9437B680B40134318465F
:1012BC002437BD4680BC704780B582B000AF7860E3
:1012CC007B68013BB3F1807F01D301230FE00A4A15
:1012DC007B68013B53600F214FF0FF30FFF790FF0D
:1012EC00054B00229A60044B07221A600023184613
:1012FC000837BD4680BD00BF10E000E080B582B06D
:10130C0000AF78607868FFF72DFF00BF0837BD4647
:10131C0080BD80B586B000AF0346B9607A60FB73C0
:10132C0000237B61FFF742FF78617A68B9687869BE
:10133C00FFF790FF024697F90F3011461846FFF75A
:10134C005FFF00BF1837BD4680BD80B582B000AFCF
:10135C000346FB7197F907301846FFF735FF00BFBE
:10136C000837BD4680BD80B582B000AF7860786824
:10137C00FFF7A2FF034618460837BD4680BD0000A4
:10138C0080B48BB000AF7860396000237B6200239F
:10139C003B6248E101227B6A02FA03F3FB613B6882
:1013AC001B68FA691340BB61BA69FB699A4240F049
:1013BC0037813B685B68A34A93425ED0A14A934253
:1013CC0075D8A14A934258D09F4A93426FD89F4AEE
:1013DC00934252D09D4A934269D89D4A93424CD035
:1013EC009B4A934263D89B4A934246D0994A934274
:1013FC005DD8122B2AD8122B59D801A252F823F0FF
:10140C00871400086114000873140008B514000850
:10141C00BB140008BB140008BB140008BB14000864
:10142C00BB140008BB140008BB140008BB14000854
:10143C00BB140008BB140008BB140008BB14000844
:10144C00BB140008691400087D140008824A9342FA
:10145C0013D02CE03B68DB683B6229E03B68DB681F
:10146C0004333B6224E03B68DB6808333B621FE0DB
:10147C003B68DB680C333B621AE03B689B68002BD3
:10148C0002D104233B6213E03B689B68012B05D11E
:10149C0008233B627B68FA691A6109E008233B6206
:1014AC007B68FA695A6103E000233B6200E000BFED
:1014BC00BB69FF2B01D87B6801E07B6804337B613F
:1014CC00BB69FF2B02D87B6A9B0002E07B6A083B5E
:1014DC009B003B617B691A680F213B6901FA03F39E
:1014EC00DB431A40396A3B6901FA03F31A437B69FF
:1014FC001A603B685B6803F08053002B00F090800F
:10150C00564B9B69554A43F001039361534B9B69BE
:10151C0003F00103BB60BB68514A7B6A9B08023332
:10152C0052F82330FB607B6A03F003039B000F220D
:10153C0002FA03F3DB43FA681340FB607B68494A09
:10154C0093420DD07B68484A934207D07B68474A48
:10155C00934201D1022304E0032302E0012300E0C3
:10156C0000237A6A02F0030292009340FA68134354
:10157C00FB603B497B6A9B080233FA6841F82320E5
:10158C003B685B6803F48033002B06D0384B1A6839
:10159C003749BB6913430B6006E0354B1A68BB69CE
:1015AC00DB43334913400B603B685B6803F4003347
:1015BC00002B06D02E4B5A682D49BB6913434B6048
:1015CC0006E02B4B5A68BB69DB43294913404B603F
:1015DC003B685B6803F48013002B06D0244B9A689D
:1015EC002349BB6913438B6006E0214B9A68BB69A6
:1015FC00DB431F4913408B603B685B6803F40013AB
:10160C00002B06D01A4BDA681949BB691343CB601F
:10161C0006E0174BDA68BB69DB4315491340CB6016
:10162C007B6A01337B623B681A687B6A22FA03F39C
:10163C00002B7FF4AFAE00BF00BF2C37BD4680BC83
:10164C00704700BF00003210000031100000221063
:10165C0000002110000012100000111000100240B8
:10166C000000014000080140000C01400010014046
:10167C000004014080B485B000AF78600B467B80DD
:10168C007B689A687B881340002B02D00123FB7384
:10169C0001E00023FB73FB7B18461437BD4680BC6E
:1016AC00704780B483B000AF78600B467B801346E4
:1016BC007B707B78002B03D07A887B681A6103E0FF
:1016CC007B881A047B681A6100BF0C37BD4680BC4E
:1016DC00704780B485B000AF78600B467B807B6828
:1016EC00DB68FB607A88FB6813401A04FB68D943FB
:1016FC007B880B401A437B681A6100BF1437BD46C8
:10170C0080BC704780B586B000AF78607B68002BDA
:10171C0001D101236CE27B681B6803F00103002BF1
:10172C0000F08780924B5B6803F00C03042B0CD009
:10173C008F4B5B6803F00C03082B12D18C4B5B684E
:10174C0003F48033B3F5803F0BD1894B1B6803F452
:10175C000033002B6CD07B685B68002B68D10123B5
:10176C0046E27B685B68B3F5803F06D1804B1B6813
:10177C007F4A43F4803313602EE07B685B68002B58
:10178C000CD17B4B1B687A4A23F480331360784B63
:10179C001B68774A23F4802313601DE07B685B6829
:1017AC00B3F5A02F0CD1724B1B68714A43F4802304
:1017BC0013606F4B1B686E4A43F4803313600BE06D
:1017CC006B4B1B686A4A23F480331360684B1B68AD
:1017DC00674A23F4802313607B685B68002B13D06B
:1017EC00FFF7B6FC386108E0FFF7B2FC02463B6934
:1017FC00D31A642B01D90323FAE15D4B1B6803F464
:10180C000033002BF0D014E0FFF7A2FC386108E0A5
:10181C00FFF79EFC02463B69D31A642B01D90323C4
:10182C00E6E1534B1B6803F40033002BF0D100E0CE
:10183C0000BF7B681B6803F00203002B63D04C4B8A
:10184C005B6803F00C03002B0BD0494B5B6803F077
:10185C000C03082B1CD1464B5B6803F48033002B24
:10186C0016D1434B1B6803F00203002B05D07B6899
:10187C001B69012B01D00123BAE13D4B1B6823F0FE
:10188C00F8027B685B69DB00394913430B603AE073
:10189C007B681B69002B20D0364B01221A60FFF7A6
:1018AC0057FC386108E0FFF753FC02463B69D31A3A
:1018BC00022B01D903239BE12D4B1B6803F0020380
:1018CC00002BF0D02A4B1B6823F0F8027B685B6975
:1018DC00DB00274913430B6015E0264B00221A60EE
:1018EC00FFF736FC386108E0FFF732FC02463B6933
:1018FC00D31A022B01D903237AE11D4B1B6803F089
:10190C000203002BF0D17B681B6803F00803002B4B
:10191C003AD07B689B69002B19D0174B01221A60B7
:10192C00FFF716FC386108E0FFF712FC02463B6932
:10193C00D31A022B01D903235AE10D4B5B6A03F036
:10194C000203002BF0D0012000F0A6FA1CE00A4B99
:10195C0000221A60FFF7FCFB38610FE0FFF7F8FB81
:10196C0002463B69D31A022B08D9032340E100BF7E
:10197C000010024000004242800442429E4B5B6ACF
:10198C0003F00203002BE9D17B681B6803F004030E
:10199C00002B00F0A6800023FB75974BDB6903F04E
:1019AC008053002B0DD1944BDB69934A43F0805349
:1019BC00D361914BDB6903F08053BB60BB6801239F
:1019CC00FB758E4B1B6803F48073002B18D18B4B6B
:1019DC001B688A4A43F480731360FFF7B9FB3861C4
:1019EC0008E0FFF7B5FB02463B69D31A642B01D91B
:1019FC000323FDE0814B1B6803F48073002BF0D0B4
:101A0C007B68DB68012B06D17B4B1B6A7A4A43F05F
:101A1C00010313622DE07B68DB68002B0CD1764B45
:101A2C001B6A754A23F001031362734B1B6A724ADB
:101A3C0023F0040313621CE07B68DB68052B0CD1DC
:101A4C006D4B1B6A6C4A43F0040313626A4B1B6AAE
:101A5C00694A43F0010313620BE0674B1B6A664A49
:101A6C0023F001031362644B1B6A634A23F00403E3
:101A7C0013627B68DB68002B15D0FFF769FB3861BC
:101A8C000AE0FFF765FB02463B69D31A41F2883244
:101A9C00934201D90323ABE0574B1B6A03F00203BB
:101AAC00002BEED014E0FFF753FB38610AE0FFF790
:101ABC004FFB02463B69D31A41F28832934201D95B
:101ACC00032395E04C4B1B6A03F00203002BEED171
:101ADC00FB7D012B05D1484BDB69474A23F0805332
:101AEC00D3617B68DB69002B00F08180424B5B6823
:101AFC0003F00C03082B61D07B68DB69022B46D109
:101B0C003F4B00221A60FFF723FB386108E0FFF718
:101B1C001FFB02463B69D31A022B01D9032367E052
:101B2C00354B1B6803F00073002BF0D17B681B6AEC
:101B3C00B3F5803F08D1304B5B6823F400327B68EF
:101B4C009B682D4913434B602B4B5B6823F4741239
:101B5C007B68196A7B685B6A0B43274913434B60AC
:101B6C00274B01221A60FFF7F3FA386108E0FFF700
:101B7C00EFFA02463B69D31A022B01D9032337E053
:101B8C001D4B1B6803F00073002BF0D02FE01C4B97
:101B9C0000221A60FFF7DCFA386108E0FFF7D8FA88
:101BAC0002463B69D31A022B01D9032320E0124BC6
:101BBC001B6803F00073002BF0D118E07B68DB6925
:101BCC00012B01D1012313E00B4B5B68FB60FB681D
:101BDC0003F480327B681B6A9A4206D1FB6803F4DB
:101BEC0070127B685B6A9A4201D0012300E00023EB
:101BFC0018461837BD4680BD0010024000700040EA
:101C0C006000424280B584B000AF786039607B6878
:101C1C00002B01D10123D0E06A4B1B6803F00703B2
:101C2C003A689A4210D9674B1B6823F00702654942
:101C3C003B6813430B60634B1B6803F007033A6864
:101C4C009A4201D00123B8E07B681B6803F00203C1
:101C5C00002B20D07B681B6803F00403002B05D0FD
:101C6C00594B5B68584A43F4E06353607B681B68CC
:101C7C0003F00803002B05D0534B5B68524A43F426
:101C8C0060535360504B5B6823F0F0027B689B6899
:101C9C004D4913434B607B681B6803F00103002B19
:101CAC0040D07B685B68012B07D1474B1B6803F462
:101CBC000033002B15D101237FE07B685B68022B7E
:101CCC0007D1414B1B6803F00073002B09D1012392
:101CDC0073E03D4B1B6803F00203002B01D1012381
:101CEC006BE0394B5B6823F003027B685B68364919
:101CFC0013434B60FFF72CFAF8600AE0FFF728FA61
:101D0C000246FB68D31A41F28832934201D903236D
:101D1C0053E02D4B5B6803F00C027B685B689B0007
:101D2C009A42EBD1274B1B6803F007033A689A429F
:101D3C0010D2244B1B6823F0070222493B68134343
:101D4C000B60204B1B6803F007033A689A4201D0E2
:101D5C00012332E07B681B6803F00403002B08D0DE
:101D6C00194B5B6823F4E0627B68DB68164913430C
:101D7C004B607B681B6803F00803002B09D0124BE7
:101D8C005B6823F460527B681B69DB000E491343CC
:101D9C004B6000F021F802460B4B5B681B0903F00B
:101DAC000F030A49CB5C22FA03F3094A1360094B6F
:101DBC001B681846FFF78AF9002318461037BD46F2
:101DCC0080BD00BF00200240001002402827000800
:101DDC00340000203800002090B48AB000AF2A4BA9
:101DEC003C1D0FCB84E80F0040F201233B80002305
:101DFC00FB610023BB6100237B6200237B6100231A
:101E0C003B62224B5B68FB61FB6903F00C03042B08
:101E1C0002D0082B03D02DE01D4B3B622DE0FB695B
:101E2C009B0C03F00F0307F12802134413F8243C16
:101E3C007B61FB6903F48033002B13D0134B5B687D
:101E4C005B0C03F0010307F12802134413F8283C40
:101E5C00BB617B690E4A02FB03F2BB69B2FBF3F375
:101E6C007B6204E07B690B4A02FB03F37B627B6AB7
:101E7C003B6202E0064B3B6200BF3B6A18462837C8
:101E8C00BD4690BC704700BF1827000800100240E8
:101E9C0000127A0000093D0080B485B000AF786074
:101EAC000A4B1B680A4AA2FB03235B0A7A6802FBF3
:101EBC0003F3FB6000BFFB685A1EFA60002BF9D1DC
:101ECC0000BF00BF1437BD4680BC704734000020F3
:101EDC00D34D621080B582B000AF78607B68002B68
:101EEC0001D1012341E07B6893F83D30DBB2002B3C
:101EFC0006D17B68002283F83C207868FFF73CF819
:101F0C007B68022283F83D207B681A687B68043367
:101F1C001946104600F06AFA7B68012283F84620C5
:101F2C007B68012283F83E207B68012283F83F20E6
:101F3C007B68012283F840207B68012283F84120D2
:101F4C007B68012283F842207B68012283F84320BE
:101F5C007B68012283F844207B68012283F84520AA
:101F6C007B68012283F83D20002318460837BD46C4
:101F7C0080BD000080B485B000AF78607B6893F8BA
:101F8C003D30DBB2012B01D0012335E07B6802220E
:101F9C0083F83D207B681B68DA687B681B6842F01D
:101FAC000102DA607B681B68164A934209D07B6891
:101FBC001B68B3F1804F04D07B681B68124A9342B4
:101FCC0011D17B681B689B6803F00703FB60FB68FF
:101FDC00062B10D07B681B681A687B681B6842F064
:101FEC0001021A6007E07B681B681A687B681B6833
:101FFC0042F001021A60002318461437BD4680BC1B
:10200C00704700BF002C01400004004080B582B036
:10201C0000AF78607B681B681B6903F00203022B1E
:10202C0022D17B681B68DB6803F00203022B1BD1F7
:10203C007B681B686FF002021A617B6801221A77B9
:10204C007B681B689B6903F00303002B03D0786843
:10205C0000F0B1F905E0786800F0A4F9786800F0B8
:10206C00B3F97B6800221A777B681B681B6903F045
:10207C000403042B22D17B681B68DB6803F0040388
:10208C00042B1BD17B681B686FF004021A617B6800
:10209C0002221A777B681B689B6903F44073002B40
:1020AC0003D0786800F087F905E0786800F07AF9D9
:1020BC00786800F089F97B6800221A777B681B68C6
:1020CC001B6903F00803082B22D17B681B68DB68B3
:1020DC0003F00803082B1BD17B681B686FF0080208
:1020EC001A617B6804221A777B681B68DB6903F032
:1020FC000303002B03D0786800F05DF905E07868E5
:10210C0000F050F9786800F05FF97B6800221A77CC
:10211C007B681B681B6903F01003102B22D17B68B2
:10212C001B68DB6803F01003102B1BD17B681B684A
:10213C006FF010021A617B6808221A777B681B68A3
:10214C00DB6903F44073002B03D0786800F033F99B
:10215C0005E0786800F026F9786800F035F97B68BE
:10216C0000221A777B681B681B6903F00103012BA3
:10217C000ED17B681B68DB6803F00103012B07D1D0
:10218C007B681B686FF001021A617868FEF750FFDC
:10219C007B681B681B6903F08003802B0ED17B6866
:1021AC001B68DB6803F08003802B07D17B681B68FE
:1021BC006FF080021A61786800F067FA7B681B6820
:1021CC001B6903F04003402B0ED17B681B68DB6856
:1021DC0003F04003402B07D17B681B686FF0400273
:1021EC001A61786800F0F9F87B681B681B6903F0CA
:1021FC002003202B0ED17B681B68DB6803F02003C7
:10220C00202B07D17B681B686FF020021A6178685D
:10221C0000F032FA00BF0837BD4680BD80B584B0EF
:10222C0000AF786039607B6893F83C30012B01D1AA
:10223C000223B3E07B68012283F83C207B680222F6
:10224C0083F83D207B681B689B68FB60FB6823F070
:10225C007703FB60FB6823F47F43FB607B681B68A0
:10226C00FA689A603B681B68B3F5005F3ED0B3F523
:10227C00005F00F28780B3F5805F00F08580B3F5D6
:10228C00805F7FD8702B1AD0702B7BD8602B50D0EE
:10229C00602B77D8502B3CD0502B73D8402B58D078
:1022AC00402B6FD8302B64D0302B6BD8202B60D0C8
:1022BC00202B67D8002B5CD0102B5AD062E07B68A7
:1022CC0018683B6899683B685A683B68DB6800F0A3
:1022DC005CF97B681B689B68FB60FB6843F07703C9
:1022EC00FB607B681B68FA689A604EE07B68186834
:1022FC003B6899683B685A683B68DB6800F045F9B5
:10230C007B681B689A687B681B6842F480429A6001
:10231C003BE07B6818683B6859683B68DB681A4689
:10232C0000F0BCF87B681B685021184600F013F9CC
:10233C002BE07B6818683B6859683B68DB681A4679
:10234C0000F0DAF87B681B686021184600F003F98E
:10235C001BE07B6818683B6859683B68DB681A4669
:10236C0000F09CF87B681B684021184600F0F3F8DD
:10237C000BE07B681A683B681B681946104600F036
:10238C00EAF802E000BF00E000BF7B68012283F89E
:10239C003D207B68002283F83C2000231846103730
:1023AC00BD4680BD80B483B000AF786000BF0C37F1
:1023BC00BD4680BC704780B483B000AF786000BF6E
:1023CC000C37BD4680BC704780B483B000AF7860DA
:1023DC0000BF0C37BD4680BC704780B483B000AFE3
:1023EC00786000BF0C37BD4680BC704780B485B0A8
:1023FC0000AF786039607B681B68FB607B68254A9E
:10240C00934207D07B68B3F1804F03D07B68224A9C
:10241C00934208D1FB6823F07003FB603B685B6858
:10242C00FA681343FB607B681A4A934207D07B68B7
:10243C00B3F1804F03D07B68174A934208D1FB68F5
:10244C0023F44073FB603B68DB68FA681343FB6062
:10245C00FB6823F080023B685B691343FB607B687D
:10246C00FA681A603B689A687B68DA623B681A689B
:10247C007B689A627B68074A934203D13B681A696E
:10248C007B681A637B6801225A6100BF1437BD4612
:10249C0080BC7047002C01400004004080B487B021
:1024AC0000AFF860B9607A60FB681B6A7B61FB68FF
:1024BC001B6A23F00102FB681A62FB689B693B6193
:1024CC003B6923F0F0033B617B681B013A691343C2
:1024DC003B617B6923F00A037B617A69BB68134318
:1024EC007B61FB683A699A61FB687A691A6200BF82
:1024FC001C37BD4680BC704780B487B000AFF86015
:10250C00B9607A60FB681B6A23F01002FB681A62E0
:10251C00FB689B697B61FB681B6A3B617B6923F4ED
:10252C0070437B617B681B037A6913437B613B6956
:10253C0023F0A0033B61BB681B013A6913433B6169
:10254C00FB687A699A61FB683A691A6200BF1C37AA
:10255C00BD4680BC704780B485B000AF78603960F0
:10256C007B689B68FB60FB6823F07003FB603A6838
:10257C00FB68134343F00703FB607B68FA689A60BF
:10258C0000BF1437BD4680BC704780B487B000AF25
:10259C00F860B9607A603B60FB689B687B617B6923
:1025AC0023F47F437B613B681A027B681A43BB6848
:1025BC0013437A6913437B61FB687A699A6000BFA5
:1025CC001C37BD4680BC704780B485B000AF7860C6
:1025DC0039607B6893F83C30012B01D1022341E038
:1025EC007B68012283F83C207B68022283F83D2023
:1025FC007B681B685B68FB607B681B689B68BB60C7
:10260C00FB6823F07003FB603B681B68FA6813439C
:10261C00FB607B681B68FA685A607B681B68144A0D
:10262C00934209D07B681B68B3F1804F04D07B6860
:10263C001B68104A93420CD1BB6823F08003BB602B
:10264C003B685B68BA681343BB607B681B68BA68FD
:10265C009A607B68012283F83D207B68002283F816
:10266C003C20002318461437BD4680BC704700BF81
:10267C00002C01400004004080B483B000AF7860AF
:10268C0000BF0C37BD4680BC704780B483B000AF30
:10269C00786000BF0C37BD4680BC704770B5002613
:1026AC000C4D0D4C641BA410A64209D100F022F86D
:1026BC0000260A4D0A4C641BA410A64205D170BD1D
:1026CC0055F8043B98470136EEE755F8043B98471C
:1026DC000136F2E7382700083827000838270008A9
:1026EC003C27000803460244934200D1704703F88C
:1026FC00011BF9E7F8B500BFF8BC08BC9E46704753
:0C270C00F8B500BFF8BC08BC9E46704742
:1027180002030405060708090A0B0C0D0E0F10101A
:102728000000000000000000010203040607080979
:042738003101000863
:04273C000D01000883
:10274000C000F900A400B000990092008200F800D7
:102750008000900001000000020000000300000063
:10276000040000000300000005000000020000005B
:10277000030000000024F40010000000010000002D
:04000005080010617E
:00000001FF
